:100000000C94E8030C9405040C9405040C940A2A3F
:100010000C944A330C9405040C9405040C940504C8
:100020000C9405040C9405040C9405040C94D21D46
:100030000C9405040C9405040C9405040C9405041C
:100040000C947F160C9405040C941B140C94D6137A
:100050000C9405040C9405040C9405040C940504FC
:100060000C9405040C94050475217C217F218221C8
:10007000872191219D21122212221222A721AA2139
:10008000B321BC2112221222122212221222122287
:10009000C621D421E221EC21EF21F8210122062200
:1000A000084AD73B3BCE016E84BCBFFDC12F3D6CDF
:1000B00074319ABD56833DDA3D00C77F11BED9E445
:1000C000BB4C3E916BAAAABE000000803F05A84C25
:1000D000CDB2D44EB93836A9020C50B991868808F1
:1000E0003CA6AAAA2ABE000000803F3E0D0A002CB2
:1000F0004C696D3A002C52583A002C4275663A0011
:100100002C002C57506F733A002C002C4D506F73FD
:100110003A003C446F6F72003C436865636B003C7F
:10012000416C61726D003C486F6D65003C486F6CBE
:1001300064003C52756E003C49646C65005D0D0ABC
:10014000005B6563686F3A20005D0D0A005B302E2E
:10015000396A2E32303135303731373A000D0A00E6
:100160003D00244E005D0D0A002053002046002073
:100170005400204D3800204D3900204D3500204DD1
:100180003400204D3300204D3200204D3100204DF1
:1001900030002047393400204739330020473931B7
:1001A00000204739300020473230002047323100EC
:1001B00020473139002047313800204731370020AF
:1001C00047004733382E0047383000473300473266
:1001D000004731004730005B005D0D0A005B544C66
:1001E0004F3A005D0D0A002C005B4739323A005D42
:1001F0000D0A002C003A003330003238005B470013
:100200005D0D0A003A002C005B5052423A00290D65
:100210000A00206D61782074726176656C2C206D07
:100220006D0020616363656C2C206D6D2F736563B9
:100230005E3200206D617820726174652C206D6DD6
:100240002F6D696E002C20737465702F6D6D007AB0
:1002500000790078002028003D0024002028686FE5
:100260006D696E672070756C6C2D6F66662C206DE5
:100270006D290D0A002028686F6D696E672064651E
:10028000626F756E63652C206D736563290D0A249A
:1002900032373D002028686F6D696E672073656591
:1002A0006B2C206D6D2F6D696E290D0A2432363D41
:1002B000002028686F6D696E6720666565642C2074
:1002C0006D6D2F6D696E290D0A2432353D00290DA3
:1002D0000A2432343D002028686F6D696E672064FF
:1002E000697220696E76657274206D61736B3A0075
:1002F0002028686F6D696E67206379636C652C20B8
:10030000626F6F6C290D0A2432333D00202868612A
:100310007264206C696D6974732C20626F6F6C2934
:100320000D0A2432323D002028736F6674206C69F8
:100330006D6974732C20626F6F6C290D0A24323141
:100340003D0020287265706F727420696E63686565
:10035000732C20626F6F6C290D0A2432303D00200F
:100360002861726320746F6C6572616E63652C2006
:100370006D6D290D0A2431333D0020286A756E63A6
:1003800074696F6E20646576696174696F6E2C2084
:100390006D6D290D0A2431323D00290D0A243131B9
:1003A0003D002028737461747573207265706F72DC
:1003B00074206D61736B3A00202870726F62652043
:1003C00070696E20696E766572742C20626F6F6C36
:1003D000290D0A2431303D0020286C696D69742094
:1003E00070696E7320696E766572742C20626F6F0F
:1003F0006C290D0A24363D00202873746570206531
:100400006E61626C6520696E766572742C20626F15
:100410006F6C290D0A24353D00290D0A24343D0056
:10042000202864697220706F727420696E7665721C
:1004300074206D61736B3A00290D0A24333D00204E
:10044000287374657020706F727420696E7665729F
:1004500074206D61736B3A00202873746570206995
:10046000646C652064656C61792C206D736563290B
:100470000D0A24323D002028737465702070756C5D
:1004800073652C2075736563290D0A24313D0024A2
:10049000303D002424202876696577204772626CFD
:1004A0002073657474696E6773290D0A24232028EC
:1004B00076696577202320706172616D657465725D
:1004C00073290D0A244720287669657720706172A8
:1004D000736572207374617465290D0A244920289C
:1004E00076696577206275696C6420696E666F292C
:1004F0000D0A244E20287669657720737461727422
:10050000757020626C6F636B73290D0A24783D76D9
:10051000616C7565202873617665204772626C2076
:1005200073657474696E67290D0A244E783D6C6991
:100530006E652028736176652073746172747570BE
:1005400020626C6F636B290D0A2443202863686561
:10055000636B2067636F6465206D6F6465290D0AA6
:10056000245820286B696C6C20616C61726D206C62
:100570006F636B290D0A2448202872756E20686FFE
:100580006D696E67206379636C65290D0A7E20288A
:100590006379636C65207374617274290D0A21207C
:1005A000286665656420686F6C64290D0A3F202801
:1005B00063757272656E7420737461747573290D3E
:1005C0000A6374726C2D78202872657365742047F5
:1005D00072626C290D0A000D0A4772626C20302E7F
:1005E000396A205B27242720666F722068656C704B
:1005F0005D0D0A005D0D0A00526573746F72696EBD
:10060000672064656661756C74730050676D204582
:100610006E6400436865636B20446F6F72004469C9
:100620007361626C656400456E61626C6564004371
:10063000617574696F6E3A20556E6C6F636B65649B
:1006400000272448277C2724582720746F20756EA4
:100650006C6F636B00526573657420746F20636FF9
:100660006E74696E7565005B000D0A00486F6D69F8
:100670006E67206661696C0050726F62652066610A
:10068000696C0041626F727420647572696E6720D4
:100690006379636C6500536F6674206C696D69746F
:1006A0000048617264206C696D697400414C41526C
:1006B0004D3A20000D0A00496E76616C696420672E
:1006C000636F64652049443A00556E646566696EDF
:1006D00065642066656564207261746500556E739B
:1006E0007570706F7274656420636F6D6D616E6498
:1006F000004D6F64616C2067726F75702076696F52
:100700006C6174696F6E004C696E65206F766572FE
:10071000666C6F7700486F6D696E67206E6F74202E
:10072000656E61626C656400416C61726D206C6F16
:10073000636B004E6F742069646C650045455052D0
:100740004F4D2072656164206661696C2E2055737F
:10075000696E672064656661756C74730056616CC0
:100760007565203C20332075736563005365747490
:10077000696E672064697361626C65640056616CC0
:100780007565203C203000496E76616C6964207389
:10079000746174656D656E7400426164206E756D80
:1007A00062657220666F726D617400457870656372
:1007B00074656420636F6D6D616E64206C65747424
:1007C0006572006572726F723A20006F6B0D0A00DD
:1007D00011241FBECFEFD8E0DEBFCDBF11E0A0E0F7
:1007E000B1E0E0E3F3E702C005900D92A030B1075D
:1007F000D9F716E0A0E0B1E001C01D92AD3CB10711
:10080000E1F70E9407040C9496390C9400000E94B2
:10081000A3130E945E230E9495160E94E83280E294
:10082000E7E2F5E0DF011D928A95E9F781E0809328
:10083000270578948091BC0684FF03C081E08093F3
:1008400028050E9416140E94E5120E94F9120E94C7
:100850007E130E9487290E94A72D0E948B280E9448
:10086000A21D0E94E9230E94DE1210922705109219
:100870002A0510922B05109229050E94CD15E1CF73
:1008800080912A0584FD27C08FB7F89490912A059E
:10089000906190932A058FBF0E9401130E948113DB
:1008A00090912805892F8C7021F480912905813041
:1008B00091F4943031F49FB7F89480912B058062C5
:1008C00005C09FB7F89480912B05886080932B0515
:1008D0009FBF0E94761D08950E94A52984E00E9472
:1008E0006F2A83E00E946F2A0E9485148091270559
:1008F000882321F40E94DE120E9487290895EF9236
:10090000FF920F931F93CF93DF937B018C01809114
:100910002805823009F447C0C801B70120E030E063
:1009200040EA51E40E946F380E9403370E949A36D1
:10093000EB010E94B615C801B70120E030E04AE79C
:1009400054E40E946F387B018C0182E390E0C89FE1
:10095000B001C99F700DD89F700D112480E090E008
:100960000E94C6369B01AC01C801B7010E944C35FC
:100970000E9403370E949A36DC01CB010E94542961
:1009800000E911E00EC00E9485148091270588239C
:1009900051F484EF91E0F8013197F1F70197D9F71D
:1009A0002197209781F7DF91CF911F910F91FF90B1
:1009B000EF900895DF92EF92FF920F931F93CF93E2
:1009C000DF93EC017A018B01D22E8091BC0685FF6A
:1009D00003C0CE010E94B02980912805823099F091
:1009E0000E94851480912705882369F40E94DF23E3
:1009F000882319F00E947C14F3CFCE01B801A7011F
:100A00002D2D0E946F25DF91CF911F910F91FF90A7
:100A1000EF90DF900895AF92BF92CF92DF92EF9266
:100A20000F931F93CF93DF93EC015A016B01122FA9
:100A300080912805823009F466C00E94B615109294
:100A40004605802F0E94AA2D0E94BD2D882351F0BB
:100A50009FB7F89480912B05806180932B059FBFF1
:100A60000E94851480912705882309F04CC0CE018F
:100A7000B601A501212F0E94DA0481E08093390597
:100A80009FB7F89480912A05826080932A059FBFC2
:100A90000E948514809127058823A9F58091280557
:100AA0008823B1F7809139058130A9F4EE2051F007
:100AB000EAE3F5E0DF011E978CE00D900192815092
:100AC000E1F70CC09FB7F89480912B05806180936B
:100AD0002B059FBF03C081E0809346051092390526
:100AE0000E94851480912705882369F40E94A21D25
:100AF0000E948B280E94E923CE016CE275E00E94DF
:100B000017330E947F30DF91CF911F910F91EF90AB
:100B1000DF90CF90BF90AF9008952F923F924F9269
:100B20005F926F927F928F929F92AF92BF92CF927D
:100B3000DF92EF92FF920F931F93DF93CF93CDB786
:100B4000DEB7EF970FB6F894DEBF0FBECDBF9CABFC
:100B50008BAB7EAB6DAB3A010FAB18AF29AF3AAFA1
:100B6000CBAEDCAEEDAEFEAEAFAE9924880C991CD8
:100B7000880C991C880D991D9AAB89AB9A01280D98
:100B8000391D38AB2FA7D901AD90BD90CD90DC9029
:100B9000C601B501E9A9FAA92081318142815381B9
:100BA0000E944D356DA37EA38FA398A765966FAD68
:100BB0006597462E5524440C551C440C551C2BA9F6
:100BC0003CA9240D351D3EA72DA7C301840D951DFD
:100BD0009CA78BA7DC01ED90FD900D911C91C801A5
:100BE000B701F90120813181428153810E944D3545
:100BF00069A37AA38BA39CA3D601C501B0588D8F9E
:100C00009E8FAF8FB8A3D801C701B058898F9A8F34
:100C1000AB8FBC8FADA9BEA98A0E9B1EF40160816B
:100C20007181828193812DA13EA14FA158A50E947F
:100C30004C353B014C012DA93EA9420E531ED20159
:100C40006D917D918D919C9129A13AA14BA15CA1BF
:100C50000E944C355B016C016D8D7E8D8F8D98A14E
:100C6000A60195010E946F387B018C01698D7A8DF8
:100C70008B8D9C8DA40193010E946F389B01AC0168
:100C8000C801B7010E944C351B012C016D8D7E8D72
:100C90008F8D98A1A40193010E946F387B018C0174
:100CA000698D7A8D8B8D9C8DA60195010E946F3880
:100CB0009B01AC01C801B7010E944D359B01AC01FD
:100CC000C201B1010E94C0355B016C0167968FAD16
:100CD0006797882399F0C601B5012DEB37E346E00D
:100CE00055EB0E9434388823ECF0C601B5012BED9A
:100CF0003FE049EC50E40E944C3512C0C601B501FA
:100D00002DEB37E346E055E30E942636181654F0E3
:100D1000C601B5012BED3FE049EC50E40E944D3592
:100D20005B016C01E090B806F090B9060091BA063C
:100D30001091BB066FA978AD89AD9AAD9B01AC014E
:100D40000E944D35A80197010E944C359B01AC01D2
:100D5000C801B7010E946F380E94FC387B018C01EA
:100D6000C601B50120E030E040E05FE30E946F384B
:100D70002FA938AD49AD5AAD0E946F389F77A801B1
:100D800097010E942D360E9403370E949A36788F71
:100D90006F8B6115710509F487C1BFADBB2381F06D
:100DA00080E090E00E94C6369B01AC016BAD7CAD4B
:100DB0008DAD9EAD0E946F386BAF7CAF8DAF9EAF97
:100DC0002F89388DB90180E090E00E94C6367B0102
:100DD0008C01C601B501A80197010E942D366B8BCD
:100DE0007C8B8D8B9E8B6696EFAD6697F0E0EE0F59
:100DF000FF1FEE0FFF1F8BA99CA98E0F9F1F9AA7A5
:100E000089A7ADA9BEA9EA0FFB1F6081718182810C
:100E10009381E9A5FAA520813181428153810E9405
:100E20004C35A80197010E942D366F87788B898BEE
:100E30009A8B6B897C898D899E899B01AC010E946C
:100E40006F389B01AC0160E070E080E090E40E94AC
:100E50004C355B016C016B897C898D899E892BEAFD
:100E60003AEA4AE25EE30E946F387B018C01C601D8
:100E7000B50120E030E040E850E40E944D359B0190
:100E8000AC01C801B7010E946F386B877C878D87E2
:100E90009E87C601B50120E030E040E05FE30E949C
:100EA0006F3869837A838B839C8321E030E03E83B3
:100EB0002D839924F1C03BE0391508F446C06D8DAF
:100EC0007E8D8F8D98A12B853C854D855E850E94FA
:100ED0006F387B018C01698D7A8D8B8D9C8D29817A
:100EE0003A814B815C810E946F389B01AC01C80143
:100EF000B7010E944D357B018C016D8D7E8D8F8DEC
:100F000098A129813A814B815C810E946F385B01F5
:100F10006C01698D7A8D8B8D9C8D2B853C854D85E3
:100F20005E850E946F389B01AC01C601B5010E942D
:100F30004C356D8F7E8F8F8F98A39394C701D80106
:100F4000898F9A8FAB8FBC8F61C0AD81BE81BD018F
:100F500080E090E00E94C6362B893C894D895E89ED
:100F60000E946F387B018C01C8010E942A366F8372
:100F7000788789879A87B701C8010E94F2383B01B8
:100F80004C01EFA5F8A9E080F1800281138117FBE5
:100F9000109517F91095ABA5BCA52D903D904D90DF
:100FA0005C90C801B7012F81388549855A850E9418
:100FB0006F385B016C01C201B101A40193010E9471
:100FC0006F389B01AC01C601B5010E944D356D8F94
:100FD0007E8F8F8F98A3C801B701A40193010E944F
:100FE0006F387B018C01C201B1012F8138854985A1
:100FF0005A850E946F389B01AC01C801B7010E945D
:101000004C35698F7A8F8B8F9C8F99246DA17EA12F
:101010008FA198A52D8D3E8D4F8D58A10E944D35E5
:10102000E9A9FAA9608371838283938369A17AA174
:101030008BA19CA1298D3A8D4B8D5C8D0E944D35E5
:10104000ADA5BEA56D937D938D939C931397E9A554
:10105000FAA560817181828193812F8538894989C0
:101060005A890E944D35A9A5BAA56D937D938D939C
:101070009C9313978BA99CA94BAD5CAD6DAD7EADD8
:101080002FAD0E94DA04809127058823B1F4ED8109
:10109000FE813196FE83ED832D813E818F89988D6F
:1010A0002817390708F407CF8DA99EA94BAD5CAD71
:1010B0006DAD7EAD2FAD0E94DA04EF960FB6F894B9
:1010C000DEBF0FBECDBFCF91DF911F910F91FF907B
:1010D000EF90DF90CF90BF90AF909F908F907F90D8
:1010E0006F905F904F903F902F9008952F923F9276
:1010F0004F925F926F927F928F929F92AF92BF9228
:10110000CF92DF92EF92FF920F931F93DF93CF93D3
:10111000CDB7DEB7A8970FB6F894DEBF0FBECDBF30
:101120001C01E6E8F5E089E3DF011D928A95E9F705
:101130003196A7E4B5E08AE00D9001928150E1F785
:1011400019826624AA24BB241CA277241F8E1E8E1B
:1011500061E0462E512C9924939452E0852EBAC218
:10116000802F81548A3118F081E00C94BF129F5F68
:101170009983C101BE016F5F7F4FAE014E5F5F4F2C
:101180000E949C28882319F482E00C94BF12CA8024
:10119000DB80EC80FD80C701B6010E9449390E94C6
:1011A0009A36162F70E0882777FD8095982F0E9439
:1011B000C8369B01AC01C701B6010E944C3520E046
:1011C00030E048EC52E40E946F380E94D2380E940E
:1011D0009A369B01073421F00D3409F099C14DC1B5
:1011E000183209F445C1193200F5143170F4113187
:1011F00008F0E3C0143009F449C0143008F495C075
:101200001A3011F00C94AE1237C01C31A9F11D3107
:1012100028F4163110F00C94AE12FFC01E3161F1AB
:10122000163211F00C94AE1280C01D3309F41AC1AD
:101230001E3388F4153351F1163340F41B3209F490
:10124000F5C0113311F00C94AE12F0C01C3310F045
:101250000C94AE1202C11C3540F41A3508F0BDC022
:10126000103511F00C94AE1267C01C3529F01F35F3
:1012700010F00C94AE12C8C02115310539F4BCA190
:10128000BB2311F00C94AC12E1E0ECA31C31A9F0EB
:101290001D3128F4143051F01A3069F40AC01533A6
:1012A00071F11C3581F11E3131F418C09092860520
:1012B00002C08092860580E0DCC02115310531F046
:1012C0002A30310511F00C94AE1204C0F3E0F09313
:1012D000860529C024E02093860525C02115310507
:1012E00031F02A30310511F00C94AE1204C085E0C3
:1012F0008093860518C096E09093860514C0A7E0F9
:10130000A0938605D8CF2115310531F02A3031055B
:1013100011F00C94AE1204C0B8E0B093860503C07F
:10132000E9E0E093860580E0E3C0FCA1FF2311F033
:101330000C94AC1282E08CA3123089F0133028F4A4
:10134000112351F0113069F40AC0163261F01035E2
:1013500081F1133031F403C01092870502C010935D
:10136000870581E086C02E313105B1F02F3131057E
:1013700030F42431310511F00C94AE1209C028323A
:10138000310571F02233310511F00C94AE120DC00D
:1013900094E09093870507C0A5E0A093870503C05C
:1013A000B6E0B093870581E0A3C0E7E0E09387054E
:1013B000FACFF8E0F0938705D4CF123139F013312A
:1013C00049F0113129F410928B0502C090928B05DF
:1013D00082E04FC080928B05FBCF6115710549F407
:1013E0001A3519F410928A0502C090928A0583E09A
:1013F0007FC06A30710511F00C94AE121A3511F0ED
:101400000C94D8120C94AE121D3519F490928805E4
:1014100002C01092880585E02CC0143119F4909216
:10142000890502C01092890586E023C08CA188231B
:1014300011F00C94AC12113329F410928C0593E046
:101440009CA309C02A30310511F00C94AE12909281
:101450008C05A3E0ACA388E04BC0165310938D0518
:1014600089E007C0672B11F40C94DB120C94AE12C8
:1014700087E0232BE9F10C94B012672B11F00C9448
:10148000B012163018F41330C0F40AC0183010F43B
:101490000C94AE121A3008F11E3111F00C94AE12F9
:1014A000123041F01E3131F0112311F490928E056B
:1014B0008BE01EC080928E05FBCF143039F01530C2
:1014C00041F0133041F49092900505C08092900550
:1014D00002C0109290058CE00BC0183019F0193042
:1014E00031F403C080928F0502C010928F058DE009
:1014F000920102C0220F331F8A95E2F7C9018A21A7
:101500009B21892B11F00C94B212A22AB32AE2C0BB
:10151000003509F472C00135BCF40A3409F443C043
:101520000B343CF4063449F1093411F00C94AE123A
:101530002EC00C3409F44FC00C340CF440C00E34EF
:1015400011F00C94AE124BC00435A9F0053544F4EB
:10155000023509F45CC0033511F00C94AE1261C081
:10156000093509F474C00A3509F47DC0083511F055
:101570000C94AE1260C029E081C0C0929105D09257
:101580009205E0929305F092940520E077C0C09216
:101590009505D0929605E0929705F0929805B1E0F6
:1015A0006B2A21E06BC0C0929905D0929A05E09217
:1015B0009B05F0929C05E2E06E2A22E05FC0C0929B
:1015C0009D05D0929E05E0929F05F092A005F4E063
:1015D0006F2A23E053C01093A10524E04FC0C70138
:1015E000B6010E9495366093A2057093A30580937F
:1015F000A4059093A50525E041C0C092A605D09210
:10160000A705E092A805F092A90526E037C0C09290
:10161000AA05D092AB05E092AC05F092AD0527E0AB
:101620002DC0C092AE05D092AF05E092B005F09209
:10163000B10528E023C0C092B305D092B405E09272
:10164000B505F092B60521E0722A2AE017C0C092D3
:10165000B705D092B805E092B905F092BA0582E0DC
:10166000782A2BE00BC0C092BB05D092BC05E0925B
:10167000BD05F092BE0594E0792A2CE08201022E8D
:1016800002C0000F111F0A94E2F78E8D9F8D8023F8
:101690009123892B11F089E172C781E693E002C0A2
:1016A000959587952A95E2F780FF0EC06A817B8128
:1016B0008C819D8120E030E040E050E00E942636A1
:1016C000882314F484E05BC7AE8DBF8DA02BB12BB3
:1016D000BF8FAE8F9981F101E90FF11D00810023C9
:1016E00009F03ECD772029F0BCA1BB2311F4E2E044
:1016F000ECA3FE8DF5FF0FC08091A2059091A3058C
:10170000A091A405B091A50580589649A849B0407C
:1017100014F08BE134C780918805813039F48CA1B5
:101720008230B1F59E8D90FD33C01EC78091480573
:10173000882371F5AE8DA0FF1BC080918905813093
:1017400039F5609191057091920580919305909182
:10175000940523E333E34BEC51E40E946F3860932C
:10176000910570939205809393059093940510C012
:101770008091550590915605A0915705B091580557
:101780008093910590939205A0939305B09394054F
:10179000EE8DFF8DF0FD10C08091510590915205A6
:1017A000A0915305B09154058093AE059093AF0579
:1017B000A093B005B093B10580918605813041F4C6
:1017C000FE8DF6FFD3C68E8D9F8D8F7B9F8F8E8F64
:1017D00080918B05882341F0813061F492E09BA3D6
:1017E0001AA2A1E0A9A30BC01BA2B1E0BAA3E2E038
:1017F000E9A305C0F1E0FBA322E02AA319A280918E
:101800008905813051F543EBE42E45E0F42E00E0EC
:1018100010E0C72CDD24C601002E02C095958795E7
:101820000A94E2F780FF10C0D7016D917D918D91F0
:101830009C9123E333E34BEC51E40E946F38F701B2
:1018400060837183828393830F5F1F4F84E090E0F6
:10185000E80EF91E03301105F1F69CA1933049F40E
:1018600080918C05813029F4A4E07A1611F085E28C
:1018700086C6DE011696EAE6F5E08CE001900D9250
:101880008150E1F7B1FE12C090918D05973008F0BC
:101890006FC680914D05891749F0892FBE016A5F97
:1018A0007F4F0E942522882309F464C68091860513
:1018B000823021F0883009F0FDC09AC0772009F409
:1018C0005BC68E8D9F8D80759070892B09F44EC6F6
:1018D0006091A6057091A7058091A8059091A90532
:1018E0000E9449390E949A36673008F041C620911B
:1018F000A105243131F0223009F030C6BE8DB7FD8C
:101900002DC6662319F0615068A303C0E0918D05D0
:10191000E8A38E010E5E1F4F88A1B8010E94252208
:10192000882309F427C6780133EB832E35E0932E04
:101930002EE5C22E25E0D22E00E010E0A72CBB241D
:10194000C501002E02C0959587950A94E2F780FFA5
:101950003BC08091A105843169F5D6016D917D91DF
:101960008D919C91139758962D913D914D915C913D
:101970005B970E944C35F401208131814281538173
:101980000E944C35D7016D937D938D939C93139753
:101990000230D1F420918205309183054091840575
:1019A000509185050E944C35F701608371838283D5
:1019B00093830AC0F40180819181A281B381F701F0
:1019C00080839183A283B3830F5F1F4F84E090E0F5
:1019D000E80EF91E880E991EC80ED91E0330110597
:1019E00009F0AECFAE8DBF8DAF7ABF8FAE8F02C183
:1019F000772009F4C1C503EB15E09EE5C92E95E0FB
:101A0000D92E86E0882E912C8C0E9D1EEE24FF246C
:101A1000A72CBB24C5010E2C02C0959587950A946E
:101A2000E2F780FF2CC0F601608171818281938191
:101A3000D4012D913D914D915C910E944C35F8015E
:101A400020813181428153810E944C35D8016D93B0
:101A50007D938D939C931397B2E0EB16D1F4209174
:101A600082053091830540918405509185050E943F
:101A70004C35F80160837183828393830AC0F60139
:101A8000808D918DA28DB38DF80180839183A28387
:101A9000B3830894E11CF11C0C5F1F4F84E090E0BD
:101AA000C80ED91E880E991E93E0E916F10409F0BC
:101AB000B1CF9FC0ACA1A33009F47CC0772009F45A
:101AC00079C01EE5C12E15E0D12E03EB15E0B6E07E
:101AD000AB2EB12CAC0EBD1EEE24FF24872C992416
:101AE000C4010E2C02C0959587950A94E2F780FDFB
:101AF0000BC0F60180819181A281B381F8018083BE
:101B00009183A283B38346C080918605873009F410
:101B100041C080918A05882361F5D5016D917D9141
:101B20008D919C91F601208D318D428D538D0E94B7
:101B30004D35D8012D913D914D915C910E944D35CF
:101B4000F8016083718382839383F2E0EF1611F5CD
:101B5000209182053091830540918405509185053F
:101B60000E944D35D8016D937D938D939C9313976F
:101B700011C0F8016081718182819381D6012D911C
:101B80003D914D915C910E944D35F80160837183C8
:101B9000828393830894E11CF11C84E090E0C80EDA
:101BA000D91E0C5F1F4FA80EB91E93E0E916F10471
:101BB00009F096CF80918605853049F0873099F0FD
:101BC0008330B9F4772009F41CA286E004C07720A2
:101BD00009F41CA287E0BE016E5E7F4F0E942522A1
:101BE000882339F4C7C480918705823010F08EE1D4
:101BF000C6C418A210918705183049F4772009F45B
:101C00005FC2ACA1A13009F45BC28FE1B8C4BCA132
:101C1000B23009F055C21123E9F06091910570913D
:101C20009205809193059091940520E030E040E08A
:101C300050E00E942636882309F496C4143030F40C
:101C4000123060F4113009F03BC204C0183008F0C3
:101C500037C213C2772009F432C232C2772009F4A6
:101C60008BC4FBA1EF2FF0E0F8A7EFA39AA1892F77
:101C700090E09EA38DA381E090E08C010DA002C0B6
:101C8000000F111F0A94E2F70FA002C0880F991FDE
:101C90000A94E2F7082B192B872D90E080239123DB
:101CA000892B11F480E26BC4EFA1F8A5EE0FFF1FA2
:101CB000EE0FFF1FDF01A95BBA4FEA57FA4F65A588
:101CC00076A587A590A957962D913D914D915C9150
:101CD0005A970E944C355B016C01EDA1FEA1EE0FFD
:101CE000FF1FEE0FFF1FDF01A95BBA4FEA57FA4F44
:101CF00065A576A587A590A957962D913D914D9103
:101D00005C915A970E944C351B012C01AE8DA7FFA8
:101D100002C10EE515E063EBE62E65E0F62EF80154
:101D20006081718182819381D7012D913D914D9187
:101D30005C910E942636882359F40C5F1F4FE4E023
:101D4000F0E0EE0EFF1EF5E00A361F0741F716C45D
:101D5000809189058130B1F46091AA057091AB053D
:101D60008091AC059091AD0523E333E34BEC51E456
:101D70000E946F386093AA057093AB058093AC0501
:101D80009093AD05E090AA05F090AB050091AC05ED
:101D90001091AD05C801B70120E030E040E850E403
:101DA0000E946F38A80197010E946F387B018C0157
:101DB000C601B501A60195010E946F389B01AC01D7
:101DC000C801B7010E944C357B018C01C201B101F1
:101DD000A20191010E946F389B01AC01C801B701BB
:101DE0000E944C357B018C0120E030E040E050E067
:101DF0000E942636882314F482E2C1C3C801B701C9
:101E00000E94FC387B018C01C601B501A201910141
:101E10000E945E299B01AC0117FB109517F91095E4
:101E2000C801B7010E942D367B018C018091870586
:101E3000833021F417FB109517F910956090AA05CF
:101E40007090AB058090AC059090AD05C401B301D6
:101E500020E030E040E050E00E94263688237CF409
:101E600017FB109517F91095D401C301B058809352
:101E7000AA059093AB05A093AC05B093AD058E8DEC
:101E80009F8D8F779F8F8E8FAFA1B8A5AA0FBB1F95
:101E9000AA0FBB1FA657BA4FB8A7AFA3C201B10183
:101EA000A80197010E946F389B01AC01C601B501E2
:101EB0000E944C3520E030E040E05FE30E946F3844
:101EC000EFA1F8A563877487858796878DA19EA16A
:101ED000880F991F880F991F86579A4F9EA38DA32D
:101EE000C601B501A80197010E946F389B01AC01A2
:101EF000C201B1010E944D3520E030E040E05FE3D7
:101F00000E946F38ADA1BEA11B966D937D938D93FA
:101F10009C931E97D5C0862C992408211921012B4A
:101F200011F483E22CC3EE8DFF8DE17FFF8FEE8FE6
:101F300080918905813041F535E9E32E35E0F32EB6
:101F400000E010E0C401002E02C0959587950A9428
:101F5000E2F780FF10C0D7016D917D918D919C912A
:101F600023E333E34BEC51E40E946F38F7016083C5
:101F70007183828393830F5F1F4F84E090E0E80EAC
:101F8000F91E03301105F1F6EFA0F8A4EE0CFF1CCA
:101F9000EE0CFF1CAAE8B5E0EA0EFB1EC601B50177
:101FA000F70123853485458556850E944C355B01B4
:101FB0006C010DA11EA1000F111F000F111F06576C
:101FC0001A4FC201B101D8011B962D913D914D913F
:101FD0005C911E970E944C359B01AC01C601B50176
:101FE0000E945E295B016C01F7016385748585851C
:101FF0009685D8011B962D913D914D915C911E9730
:102000000E945E293B014C016093AA057093AB05C9
:102010008093AC059093AD05C601B501A401930171
:102020000E944C357B018C01E89417F9C801B70177
:102030002AE037ED43EA5BE30E94343818160CF0CF
:102040003FC0C801B70120E030E040E05FE30E94FC
:10205000343818160CF492C2C401B3012FE632E1F1
:1020600043E85AE30E946F389B01AC01C801B701F5
:102070000E943438181624F581C2772009F47CC2F6
:102080000EE515E083EBE82E85E0F82EF80160817F
:10209000718182819381D7012D913D914D915C9108
:1020A0000E942636882361F40C5F1F4FE4E0F0E0C5
:1020B000EE0EFF1EF5E00A361F0741F75FC21CA2B5
:1020C0008E8D9F8D8E7D9C7F2CA1222321F08E8D65
:1020D0009F8D8E7D907E892B11F084E250C280917D
:1020E000A2059091A305A091A405B091A5058093A8
:1020F0005A0590935B05A0935C05B0935D058091B4
:102100008805809348058091910590919205A09152
:102110009305B09194058093550590935605A0932F
:102120005705B0935805E090AE05F090AF050091CB
:10213000B0051091B10560915105709152058091E3
:10214000530590915405A80197010E9426368823D3
:10215000C1F080915005882321F0B801A7010E94A9
:1021600065138091AE059091AF05A091B005B09137
:10217000B1058093510590935205A0935305B093F8
:1021800054058091B20580935905909190058091F6
:102190005005891779F04091510550915205609191
:1021A000530570915405892F0E9465138091900505
:1021B0008093500590918F0580914F05891739F0D4
:1021C000892F0E94891380918F0580934F058091FC
:1021D0008605813051F46091A6057091A705809124
:1021E000A8059091A9050E947F0480918B0580939A
:1021F0004B0580918905809349058CA18330D9F4E2
:1022000080918C0580934C05813049F48091BB0509
:102210009091BC05A091BD05B091BE0504C080E0C1
:1022200090E0A0E0B0E08093820590938305A093B6
:102230008405B093850590918D0580914D05891792
:1022400059F090934D05AAE6B5E0FE0136968CE074
:1022500001900D928150E1F780918A0580934A05A3
:1022600080918605853059F1863048F4833039F104
:10227000843008F044C0823009F05AC00AC0883067
:1022800009F445C0893009F44CC0863009F050C0CB
:1022900038C08E010E5E1F4F88A1B8010E941A221D
:1022A00080914D0598A1891709F042C0AAE6B5E0D2
:1022B000F8018CE001900D928150E1F739C0ACA19A
:1022C000AA2349F083EB95E040E050E060E87FEB23
:1022D00020E00E94DA048E010E5E1F4FC80140E02C
:1022E00050E060E87FEB20E00E94DA04AEE5B5E064
:1022F000F8018CE001900D928150E1F719C086E061
:1023000001C087E06EE575E00E941A2211C0A6E7C1
:10231000B5E0E3EBF5E08CE001900D928150E1F740
:1023200007C08CE0E6E7F5E0DF011D928A95E9F74A
:102330008091870580934705883009F4C2C0BCA10D
:10234000B23009F0BEC0833009F44AC0843028F4AA
:102350008130C1F0823028F50DC0853009F47AC093
:10236000853008F469C0863009F482C0873009F0EE
:102370009FC08DC083EB95E040E050E060E87FEBCC
:1023800020E00CC0409155055091560560915705CD
:102390007091580583EB95E0209148050E94DA047E
:1023A00087C000D00F92EDB7FEB731960091AA0515
:1023B0001091AB052091AC053091AD05C09055054D
:1023C000D0905605E0905705F09058058AA1ADB71A
:1023D000BEB711968C9399A1918381E082831DC031
:1023E00000D00F92EDB7FEB731960091AA0510917B
:1023F000AB052091AC053091AD05C0905505D0904E
:102400005605E0905705F09058058AA1ADB7BEB7C4
:1024100011968C9399A1918312828EE595E063EBDE
:1024200075E045E955E0A09048058BA00E948D0518
:102430000F900F900F903CC040915505509156055C
:10244000609157057091580583EB95E02091480500
:1024500000E01BC04091550550915605609157050D
:102460007091580583EB95E02091480500E01CC071
:10247000409155055091560560915705709158054A
:1024800083EB95E02091480501E0EE240FC04091D8
:10249000550550915605609157057091580583EB8D
:1024A00095E02091480501E0EE24E3940E940B059D
:1024B000AEE5B5E0E3EBF5E08CE001900D928150E4
:1024C000E1F780918E0580934E05882309F457C06B
:1024D0000E94B61580914E05813079F480912805CF
:1024E0008230B1F19FB7F89480912A05886080937B
:1024F0002A059FBF0E9485142BC081E08093470569
:1025000010924B0510924A051092480510924D0505
:102510001092500510924F05809128058230A9F045
:102520008E010A5F1F4F80E0B8010E942522882398
:1025300009F1AAE6B5E0F8018CE001900D92815016
:10254000E1F70E9401130E94811387E00E94E82DA9
:1025500010924E0580E013C088E111C084E10FC0E5
:1025600087E10DC085E10BC086E109C08CE107C0A1
:102570008DE105C087E003C08AE101C081E2A89631
:102580000FB6F894DEBF0FBECDBFCF91DF911F9184
:102590000F91FF90EF90DF90CF90BF90AF909F9002
:1025A0008F907F906F905F904F903F902F90089505
:1025B00084E00C94780A8AE00C94780A8EE595E021
:1025C0006CE275E00E9417330895E7E4F5E08FE3CD
:1025D000DF011D928A95E9F780914D05BF016D5D80
:1025E0007F4F0E942522882319F487E00E94212E24
:1025F0000895239A259AE0EBF0E080818F7780831D
:102600000895E0EBF0E080818F7780830895EF926A
:10261000FF920F931F937A018B01882331F48091ED
:10262000B0008F778093B0004BC0813011F42D98AB
:1026300001C02D9A83E88093B0008091B100887F1B
:1026400082608093B100C801B70120E030E040E033
:1026500050E00E94263688235CF40F2EF0E0EF2E27
:10266000F0E0FF2EF0E00F2FF0E01F2FF02D14C050
:10267000C801B70120E030E04AE754E40E94343852
:10268000181654F40F2EF0E0EF2EF0E0FF2EFAE7CC
:102690000F2FF4E41F2FF02DC801B7012CE53FE800
:1026A00042E85EE30E946F3820E030E040E05FE304
:1026B0000E944D350E9403370E949A366093B30002
:1026C0001F910F91FF90EF900895DF92EF92FF928C
:1026D0000F931F93D82E7A018B01809128058230A9
:1026E00039F00E94B6158D2DB801A7010E9407137D
:1026F0001F910F91FF90EF90DF9008953B9A4398C0
:10270000089543980895823011F4439A08954398A8
:1027100008951F93182F80912805823039F00E9468
:10272000B615123011F4439A01C043981F910895D1
:102730009091010180910001891710F0891B089583
:102740008058891B0895E0ECF0E0808182608083EE
:102750001092C50080E18093C400E1ECF0E080813C
:1027600080618083808188608083808180688083AD
:102770000895282FE09102019E2F9F5F903431F43D
:1027800090E004C080912A0584FD0FC08091030170
:102790009817C1F3F0E0E154FA4F208390930201BF
:1027A0008091C10080628093C10008951F920F92B2
:1027B0000FB60F9211248F939F93EF93FF93809105
:1027C0000301E82FF0E0E154FA4F90819093C600A6
:1027D000982F9F5F903409F490E0909303018091CB
:1027E0000201981729F48091C1008F7D8093C10068
:1027F000FF91EF919F918F910F900FBE0F901F90BF
:1028000018959091010180910001891711F48FEFC3
:102810000895E92FF0E0E150FA4F8081E92FEF5F52
:10282000E03809F4E0E0E0930101089580910001AF
:102830008093010108951F920F920FB60F921124F9
:102840002F933F934F935F936F937F938F939F93B8
:10285000AF93BF93EF93FF939091C6009F3361F0C6
:10286000903428F4983119F1913221F514C0903444
:10287000C1F09E37F9F406C09FB7F89480912A05FD
:10288000816005C09FB7F89480912A05826080938B
:102890002A059FBF20C09FB7F89480912A058860C1
:1028A000F6CF9FB7F89480912A058062F0CF0E94FE
:1028B000400411C0E09100012E2F2F5F203809F451
:1028C00020E080910101281731F0F0E0E150FA4F4B
:1028D000908320930001FF91EF91BF91AF919F9161
:1028E0008F917F916F915F914F913F912F910F90B9
:1028F0000FBE0F901F9018959FB7F89480912A05EE
:10290000826080932A059FBF0895CF92DF92EF9255
:10291000FF920F931F93CF93DF93FF24F39428E04C
:10292000D22E90E2C92E00E180E4E82E80912B05A2
:10293000882381F1F0922805182F81FF02C081E0E1
:102940000FC082FF02C082E00BC083FF02C083E0A1
:1029500007C084FF02C084E003C085FF03C085E098
:102960000E94BA3210FF0FC081E00E94E82D9FB78D
:10297000F89480912A058F7E80932A059FBF8091CD
:102980002A0584FFFCCF8FB7F89490912B05109205
:102990002B058FBF10912A05112309F4C5C0C12F43
:1029A000D0E014FF04C081E080932705D6C010FF5B
:1029B0000AC00E94882E9FB7F89480912A058E7FC6
:1029C00080932A059FBFCE0188769070892B09F4E9
:1029D0003DC090912805992349F0892F8C7771F19A
:1029E000983021F40E94B716F0922905909128059D
:1029F000992319F482E080932905C6FF09C0983015
:102A000011F4E092280580912905886080932905BA
:102A1000C3FF06C08091280585FD02C000932805EC
:102A2000C5FF0CC086E00E94E82D8091290581FD3C
:102A30001460846080932905C09228059FB7F8949C
:102A400080912A05877980932A059FBFC12FD0E006
:102A500011FF4AC0CE0188769070892BE9F58091EC
:102A60002805882331F08075B9F18091290581FF0F
:102A700033C08091290582FF1CC0809150058823B6
:102A800071F040915105509152056091530570913C
:102A900054050E94071380EA9FE00E945429809108
:102AA0004F05882331F00E94831388EE93E00E9443
:102AB00054290E94CE23892B59F08091290583FD4A
:102AC00007C0D09228050E94D9160E94571602C04E
:102AD00010922805109229059FB7F89480912A0535
:102AE0008D7F80932A059FBFC2FF1EC0809128055D
:102AF000807371F08091290582FF04C00E94011348
:102B00000E9481138091290582608093290504C069
:102B100010922905109228059FB7F89480912A05F4
:102B20008B7F80932A059FBF809128058C7711F0B9
:102B30000E94D91680912805803251F48091290590
:102B400081FF06C00E94F932882311F40093280502
:102B500080912905882309F0E9CEDF91CF911F915B
:102B60000F91FF90EF90DF90CF9008959FB7F8946A
:102B700080912A05826080932A059FBF0E94851458
:102B800080912705882341F40E94CE23892BB1F739
:102B900080912805883091F308950F931F930E9428
:102BA000E32D80912805813021F482E00E94E82DF8
:102BB00028C00E94F932882341F080912A05806262
:102BC00080932A050E94851402C01092280584E093
:102BD00091E00E94823315C09A3011F09D3029F5A2
:102BE000E12FF0E0EC5FFE4F10820E94851480918F
:102BF0002705882331F480910401882321F40E9461
:102C0000212E00E02BC0843229F484E091E00E9460
:102C1000AE33F5CF80912805813011F489E0EFCFF4
:102C200084E091E00E947608EACF002331F09932E7
:102C300039F5013029F500E023C0913208F19F32C7
:102C4000F9F0983211F401E01BC09B3311F402E05B
:102C500017C01F3428F08BE00E94212E10E010C016
:102C6000892F8156A12FB0E0E12FEF5F8A3120F448
:102C7000AC5FBE4F905202C0AC5FBE4F9C931E2F04
:102C80000E940114982F8F3F09F0A6CF8FB7F894B8
:102C900090912A05926090932A058FBF0E94851417
:102CA00080912705882361F31F910F9108958091EA
:102CB000BC0682FF02C0289A01C02898809128058E
:102CC0008C70E1F08091F4018093DC018091F3013C
:102CD0008093DB018091AF0690E0A0E0B0E0029726
:102CE000A109B109880F991FAA1FBB1F8195809365
:102CF000DA0180916F00826080936F0008951F92C7
:102D00000F920FB60F9211248F939F939BB18091D6
:102D1000F3018C71937E892B8BB915BC9F918F9198
:102D20000F900FBE0F901F9018958AB18C618AB9D1
:102D3000209A8AB1806E8AB9E1E8F0E080818F7EC6
:102D40008083808188608083E0E8F0E080818C7FF0
:102D5000808380818F708083EEE6F0E08081887FC1
:102D6000808314BC15BC8081816080830895CF93DB
:102D7000DF93C091F601D091F7012097B9F081E07F
:102D80008093FB01209111023091120240911302B5
:102D900050911402CA01B9010E946F38698B7A8B75
:102DA0008B8B9C8B1092F7011092F601DF91CF91E3
:102DB00008952F923F924F925F926F927F928F92DF
:102DC0009F92AF92BF92CF92DF92EF92FF920F93BA
:102DD0001F93DF93CF93CDB7DEB7E9970FB6F89483
:102DE000DEBF0FBECDBF80912805807709F422C6D3
:102DF000609111027091120280911302909114025D
:102E000020E030E040E050E00E942636882309F0C0
:102E100011C617C68091F6019091F701892B09F030
:102E20007EC20E94CE239093F7018093F601892BF6
:102E300009F407C68091FB01882319F01092FB0169
:102E4000CAC08091FA018F5F8093FA01853011F436
:102E50001092FA01E091FA0121E1E29FF0011124C0
:102E6000EC5AFE4FF093F901E093F8010091F6015E
:102E70001091F701D8018C91808311962D913D918D
:102E80004D915C91149793E0220F331F441F551FFF
:102E90009A95D1F7218332834383548315962D91DC
:102EA0003D914D915C91189783E0220F331F441F91
:102EB000551F8A95D1F72583368347835087199606
:102EC0002D913D914D915C911C9773E0220F331F22
:102ED000441F551F7A95D1F721873287438754873E
:102EE0001D962D913D914D915C91509763E0220F7D
:102EF000331F441F551F6A95D1F7258736874787AB
:102F0000508B1D966D917D918D919C9150970E9453
:102F1000C6366093FC017093FD018093FE0190938F
:102F2000FF01F80125A136A147A150A50E942D3629
:102F30009B01AC0160930002709301028093020236
:102F40009093030260E070E080EA9FE30E942D36D8
:102F50006093040270930502809306029093070227
:102F600080E090E0A0E0B0E0809308029093090236
:102F7000A0930A02B0930B02809128058077E1F0BC
:102F80002091190230911A0240911B0250911C02AB
:102F900020931102309312024093130250931402B3
:102FA000CA01B9010E946F38D80151966D937D9383
:102FB0008D939C9354970FC0F8016189728983891E
:102FC00094890E94FC3860931102709312028093DE
:102FD00013029093140280E090E0A0E0B0E08093B0
:102FE0000D0290930E02A0930F02B0931002009175
:102FF000F6011091F701D80191968D919D910D9058
:10300000BC91A02D88AB99ABAAABBBAB60E070E0E4
:1030100080E09FE328A939A94AA95BA90E942D361F
:103020001B012C0180912805807709F456C0B2E07D
:10303000B0930C02F801A5A0B6A0C7A0D0A46188E7
:10304000728883889488C201B101A40193010E940F
:103050006F389B01AC01C601B5010E944C357B0164
:103060008C0120E030E040E050E00E9426368823CA
:10307000FCF468A979A98AA99BA920E030E040E086
:1030800050EC0E946F38A60195010E946F389B0199
:10309000AC01C401B3010E944D350E94FC3860931D
:1030A000190270931A0280931B0290931C0237C17D
:1030B000E0920D02F0920E0200930F0210931002A4
:1030C00080E090E0A0E0B0E08093190290931A02B3
:1030D000A0931B02B0931C0222C110920C02F801B3
:1030E00085A196A1A7A1B0A580931D0290931E0271
:1030F000A0931F02B09320020E944D255B016C013A
:103100006093190270931A0280931B0290931C0221
:10311000A60195010E946F383B014C012091F601F8
:103120003091F70139AF28AFD90195968D919D91D6
:103130000D90BC91A02D8B8F9C8FAD8FBE8FF90110
:103140006189728983899489A40193010E944C3515
:103150009B01AC01C201B1010E946F389B01AC011F
:103160006B8D7C8D8D8D9E8D0E944D3520E030E0E5
:1031700040E05FE30E946F387B018C0120E030E08B
:1031800040E050E00E94343818160CF0B4C0C8017A
:10319000B7012B8D3C8D4D8D5E8D0E942636882388
:1031A0000CF095C0A8ADB9AD5D966D917D918D91F6
:1031B0009C919097A40193010E944C359B01AC0116
:1031C000C201B1010E946F38609321027093220204
:1031D0008093230290932402A80197010E9426362F
:1031E00088230CF047C0E8ADF9ADE58CF68C078D6F
:1031F00010A1C801B7010E94FC38609315027093BA
:1032000016028093170290931802A8ADB9AD51969B
:10321000AD90BD90CD90DC905497C601B501A8014A
:1032200097010E942636882321F4B1E0B0930C0266
:1032300076C0C801B701A60195010E944C359B01DB
:10324000AC01C201B1010E946F389B01AC016091D9
:103250001D0270911E0280911F02909120020E9417
:103260004C3560931D0270931E0280931F02909351
:10327000200255C0E0921D02F0921E0200931F0230
:1032800010932002E0922102F09222020093230286
:1032900010932402E8ADF9AD21A132A143A154A1BC
:1032A000CA01B9010E944D35A80197010E946F38EB
:1032B000A40193010E944D350E94FC3860931502D1
:1032C00070931602809317029093180228C0F2E0C0
:1032D000F0930C028091110290911202A0911302BE
:1032E000B09114028093150290931602A0931702D6
:1032F000B093180214C080E090E0A0E0B0E08093AA
:103300001D0290931E02A0931F02B0932002A09270
:103310001502B0921602C0921702D0921802809144
:10332000F101B6E08B9FD0011124A755BE4FB9AF74
:10333000A8AF8091FA0112968C93E091F601F0917A
:10334000F701FA8FE98F85A196A1A7A1B0A58D8B72
:103350009E8BAF8BB88FBC01CD01209104023091C0
:10336000050240910602509107020E944C356CA361
:103370007DA38EA39FA320E030E040E050E00E94B8
:103380002636882344F480E090E0A0E0B0E08CA3EF
:103390009DA3AEA3BFA380911D0290911E02A09198
:1033A0001F02B0912002898B9A8BAB8BBC8B8091D2
:1033B000150290911602A0911702B09118028D8704
:1033C0009E87AF87B88B8091210290912202A091B5
:1033D0002302B091240289879A87AB87BC878091AA
:1033E0000D0290910E02A0910F02B09110028D83F8
:1033F0009E83AF83B8878091190290911A02A091A1
:103400001B02B0911C0289839A83AB83BC83809199
:10341000110290911202A0911302B091140288A39C
:1034200099A3AAA3BBA390910C029F8FAD88BE88DD
:10343000CF88D88C8EE393ECAEE2B9E38CA79DA73E
:10344000AEA7BFA780E090E0A0E0B0E088A799A772
:10345000AAA7BBA70F2EFEE36F2EF3EC7F2EFEE292
:103460008F2EF9E39F2EF02D9F8D992321F091301F
:1034700009F0B3C080C0C401B301A98DBA8D919683
:103480002D913D914D915C9194970E946F387B01F5
:103490008C0120E030E040E05FE30E946F389B0148
:1034A000AC0168A179A18AA19BA10E944D359B0125
:1034B000AC01C401B3010E946F389B01AC01C6018D
:1034C000B5010E944C355B016C0129893A894B8911
:1034D0005C890E94263688230CF040C069897A896D
:1034E0008B899C8929853A854B855C850E94263687
:1034F000882319F4B2E0BF8F02C0E1E0EF8F6D893D
:103500007E898F89988D29893A894B895C890E94A7
:103510004C359B01AC010E944D357B018C0168A1AB
:1035200079A18AA19BA12D853E854F8558890E944E
:103530004D359B01AC01C801B7010E942D363B01FE
:103540004C01A988BA88CB88DC888D859E85AF859B
:10355000B88988A399A3AAA3BBA3B0C068A179A185
:103560008AA19BA1A80197010E944D3568A379A368
:103570008AA39BA3A3C06D857E858F859889A401AE
:1035800093010E946F389B01AC01C601B5010E94F6
:103590004C357B018C0129853A854B855C850E94E1
:1035A000263687FD03C05701680188C0C601B501F2
:1035B00029853A854B855C850E944C352D853E8555
:1035C0004F8558890E942D363B014C01A984BA844D
:1035D000CB84DC8492E09F8F71C0C401B301A98DBC
:1035E000BA8D91962D913D914D915C9194970E9449
:1035F0006F387B018C0168A179A18AA19BA1A801E8
:1036000097010E9434381816ACF5C801B70120E0C4
:1036100030E040E05FEB0E946F389B01AC0168A195
:1036200079A18AA19BA10E944D359B01AC01C401E7
:10363000B3010E946F389B01AC01C601B5010E9425
:103640004C351B012C012D813E814F8158850E94F4
:10365000343818167CF468A179A18AA19BA1A8012D
:1036600097010E944C3568A379A38AA39BA36201AA
:10367000510124C0C601B5012D813E814F8158857D
:103680000E944C359B01AC010E944D357B018C01A1
:1036900068A179A18AA19BA129813A814B815C8192
:1036A0000E944D359B01AC01C801B7010E942D3627
:1036B0003B014C01AD80BE80CF80D88468A579A540
:1036C0008AA59BA5A40193010E944D3568A779A7FF
:1036D0008AA79BA72CA53DA54EA55FA50E942636CF
:1036E00088232CF46CA57DA58EA59FA518C0C601C6
:1036F000B5012CA13DA14EA15FA10E94343818163E
:103700000CF56CA57DA58EA59FA52EE333EC4EE2AE
:1037100059E30E944D356CA77DA78EA79FA728A5CA
:1037200039A54AA55BA50E944C353B014C01C60159
:10373000B5012D813E814F8158850E94343818167D
:103740000CF492CE88A199A1AAA1BBA180931102E9
:1037500090931202A0931302B09314029F8D909342
:103760000C02C601B5012091000230910102409186
:103770000202509103020E946F386CAB7DAB8EAB9E
:103780009FAB0E9413361B012C016091FC017091CC
:10379000FD018091FE019091FF010E9413363B01D3
:1037A0004C01A20191010E944C350E949A36A8ADAD
:1037B000B9AD6D937C93672BB1F580912805807727
:1037C00091F180E090E0A0E0B0E08093110290934E
:1037D0001202A0931302B0931402809308029093F4
:1037E0000902A0930A02B0930B022092FC013092CE
:1037F000FD014092FE015092FF010091F6011091EF
:10380000F701C201B1012091000230910102409103
:103810000202509103020E942D36F80165A376A39F
:1038200087A390A7FEC068A579A58AA59BA520912E
:1038300008023091090240910A0250910B020E9445
:103840004D357B018C01C401B3012CA93DA94EA9C2
:103850005FA90E944C359B01AC01C801B7010E94D1
:103860002D367B018C01C201B1012CA93DA94EA9C5
:103870005FA90E944C35A80197010E946F386093A0
:1038800008027093090280930A0290930B02C80108
:10389000B70120EC31EE44E65EE40E946F380E94EE
:1038A00013360E949A36AB01BC01403DF7E05F073A
:1038B000F0E06F07F0E07F0728F4A8ADB9AD1596EA
:1038C0001C9233C0403ABFE05B07B0E06B07B0E04A
:1038D0007B0728F421E0E8ADF9AD25830FC0403423
:1038E0003FE1530730E0630730E0730710F4E2E094
:1038F00001C0E3E0A8ADB9AD1596EC93A8ADB9ADA4
:1039000015962C911597022E04C0769567955795BC
:1039100047950A94D2F78D919C91119702C0880F18
:10392000991F2A95E2F78D939C934030B0E05B0796
:10393000B1E06B07B0E07B0728F4E8ADF9AD548344
:10394000438308C0EFEFFFEFA8ADB9AD1496FC9329
:10395000EE9313978091F2018093F1018F5F809332
:10396000F201863011F41092F201C601B5012D81E9
:103970003E814F8158850E9434381816ACF4E0918E
:10398000F601F091F701A5A2B6A2C7A2D0A68CA914
:103990009DA9AEA9BFA98093FC019093FD01A093BE
:1039A000FE01B093FF0146C0C601B50120E030E042
:1039B00040E050E00E9434381816B4F580E090E002
:1039C000A0E0B0E08093110290931202A093130242
:1039D000B09314028093080290930902A0930A0204
:1039E000B0930B022092FC013092FD014092FE0147
:1039F0005092FF010091F6011091F701C201B1014F
:103A00002091000230910102409102025091030284
:103A10000E942D36D80195966D937D938D939C933E
:103A200098970E9444250DC01092F7011092F6015C
:103A30000E94BA239091F0018091F201981709F049
:103A4000E9C9E9960FB6F894DEBF0FBECDBFCF919E
:103A5000DF911F910F91FF90EF90DF90CF90BF907B
:103A6000AF909F908F907F906F905F904F903F901E
:103A70002F900895FF920F931F93CF93DF9310928F
:103A8000F3011092F401C0E0D0E00C2FFC2E8091E5
:103A9000B00690E00C2E02C0959587950A94E2F747
:103AA00080FF08C01091F3018C2F0E94AE20182BCC
:103AB0001093F3018091B10690E002C0959587952F
:103AC000FA94E2F780FF08C01091F401802F0E9461
:103AD000B820182B1093F4012196C330D105A9F614
:103AE000DF91CF911F910F91FF90089580916F000A
:103AF0008D7F80936F0080918100887F81608093AB
:103B000081001092F5019091B2069F3F21F48091BF
:103B10002B05882351F080912805843031F0892FBE
:103B200090E00E94542991E001C090E08091BC0691
:103B300082FF02C081E09827992311F0289A089506
:103B4000289808950E94761D8BE2EAEFF1E0DF01EC
:103B50001D928A95E9F783E2EDECF1E0DF011D9219
:103B60008A95E9F71092EF011092EE011092F70199
:103B70001092F6011092F0011092F10181E0809311
:103B8000F2011092F5010E943A1D8BB1837E909153
:103B9000F301892B8BB98BB18F719091F401892B33
:103BA0008BB908951F920F920FB60F9211242F9385
:103BB0003F934F935F936F937F938F939F93AF93B5
:103BC000BF93CF93DF93EF93FF938091F501882309
:103BD00009F007C29BB18091DC01807E9F71892B27
:103BE0008BB98BB1837E9091DB01892B8BB980914E
:103BF000DA0186BD82E085BD81E08093F50178948D
:103C00008091EE019091EF01892B09F0A2C0909173
:103C1000F0018091F101891709F490C09091F001B1
:103C200086E0989FE0011124C755DE4FD093EF0145
:103C3000C093EE018B819C819093890080938800D2
:103C4000888199819093EA018093E9019A8180911A
:103C5000EB01891761F19093EB01E1E19E9FF00187
:103C60001124EC5AFE4FF093ED01E093EC018585B1
:103C70009685A785B089B695A795979587958093E2
:103C8000D5019093D601A093D701B093D80180932A
:103C9000D1019093D201A093D301B093D40180932A
:103CA000CD019093CE01A093CF01B093D001E091CC
:103CB000EC01F091ED018091F401908189278093CE
:103CC000DC012D8181819281A381B481022E04C007
:103CD000B695A795979587950A94D2F78093DD01BD
:103CE0009093DE01A093DF01B093E001858196817E
:103CF000A781B085022E04C0B695A79597958795A4
:103D00000A94D2F78093E1019093E201A093E3013A
:103D1000B093E40181859285A385B48504C0B695EE
:103D2000A795979587952A95D2F78093E50190936B
:103D3000E601A093E701B093E8010BC00E94761D55
:103D40009FB7F89480912A05846080932A059FBFCD
:103D500048C10E94C32D1092DB012091DD013091FA
:103D6000DE014091DF015091E0018091CD01909101
:103D7000CE01A091CF01B091D001280F391F4A1F69
:103D80005B1F2093CD013093CE014093CF01509320
:103D9000D001E091EC01F091ED0185859685A78534
:103DA000B08982179307A407B507A8F584E080932C
:103DB000DB0185859685A785B089281B390B4A0BC1
:103DC0005B0B2093CD013093CE014093CF015093F4
:103DD000D001808185FF0CC080912C0590912D052C
:103DE000A0912E05B0912F050197A109B1090BC033
:103DF00080912C0590912D05A0912E05B0912F0555
:103E00000196A11DB11D80932C0590932D05A093C3
:103E10002E05B0932F052091E1013091E2014091F0
:103E2000E3015091E4018091D1019091D201A091E0
:103E3000D301B091D401280F391F4A1F5B1F209373
:103E4000D1013093D2014093D3015093D4018585A1
:103E50009685A785B08982179307A407B507B8F59B
:103E60008091DB0188608093DB0185859685A7853D
:103E7000B089281B390B4A0B5B0B2093D10130937F
:103E8000D2014093D3015093D401808186FF0CC0AE
:103E90008091300590913105A0913205B0913305A4
:103EA0000197A109B1090BC08091300590913105AE
:103EB000A0913205B09133050196A11DB11D8093EB
:103EC000300590933105A0933205B09333052091CE
:103ED000E5013091E6014091E7015091E8018091C0
:103EE000D5019091D601A091D701B091D801280FAA
:103EF000391F4A1F5B1F2093D5013093D601409391
:103F0000D7015093D80185859685A785B0898217FA
:103F10009307A407B507B8F58091DB018061809312
:103F2000DB0185859685A785B089281B390B4A0B4F
:103F30005B0B2093D5013093D6014093D70150936A
:103F4000D801808187FF0CC08091340590913505A0
:103F5000A0913605B09137050197A109B1090BC0B1
:103F60008091340590913505A0913605B0913705C3
:103F70000196A11DB11D8093340590933505A09342
:103F80003605B093370580912805843039F4809147
:103F900038059091DB0189238093DB018091E90151
:103FA0009091EA0101979093EA018093E901892BAE
:103FB00079F41092EF011092EE018091F0018F5F81
:103FC0008093F0018091F001863011F41092F0019D
:103FD0008091F3019091DB0189278093DB0110929E
:103FE000F501FF91EF91DF91CF91BF91AF919F913B
:103FF0008F917F916F915F914F913F912F910F9092
:104000000FBE0F901F901895F999FECF92BD81BDFC
:1040100081E08FBB80B50895F894F999FECF92BDE9
:1040200081BD81E08FBB40B54627842F992787FD4E
:104030009095262F30E082239323892B39F06F3F10
:1040400019F060BD84E006C084E104C0442321F07F
:1040500060BD84E28FBBF99A789408958F929F9205
:10406000AF92BF92CF92DF92EF92FF920F93DF93C6
:10407000CF9300D0CDB7DEB75C016B017A014A0166
:1040800000E01EC0002319F021E030E008C0202F1E
:10409000332727FD30952227330F221F3327F601C0
:1040A00061916F01062F020F9C012F5F3F4F3A83F2
:1040B00029830E940C2008948108910889819A81A3
:1040C00081149104F9F6C7018A0D9B1D602F0E948F
:1040D0000C200F900F90CF91DF910F91FF90EF90F8
:1040E000DF90CF90BF90AF909F908F900895CF9327
:1040F000DF93EC01FB019A0190E0B1E019C0F9995E
:10410000FECFF2BDE1BDBFBBA0B5992319F081E0A0
:1041100090E008C0892F992787FD90958827990FEF
:10412000881F992731969A2F980FA99321503040D4
:104130002115310521F7460F571FF999FECF52BDC2
:1041400041BD81E08FBB80B520E030E0981711F4CD
:1041500021E030E0C901DF91CF910895882311F467
:1041600084E00895813011F080E1089588E0089599
:10417000882311F480E20895813011F080E80895D9
:1041800080E40895882311F482E00895813011F0CD
:1041900080E1089584E0089580E090E00E9404208A
:1041A000893011F020E00CC08FE796E061E070E00C
:1041B0004DE450E00E94772020E0892B09F021E0B7
:1041C000822F089580E090E069E00E940C2081E059
:1041D00090E06FE776E04DE450E00E942E200895D5
:1041E000CF92DF92EF92FF920F931F93082F6A01F5
:1041F0007B01CB01BA0120E030E040E050E00E94BA
:104200002636882314F484E00EC1043608F459C01D
:10421000045690E0033008F04BC0913089F09130A3
:1042200030F09230D1F0933009F0F8C031C0E02F77
:10423000F0E0EE0FFF1FEE0FFF1FE158F94F08C02F
:10424000E02FF0E0EE0FFF1FEE0FFF1FE557F94FD5
:10425000C082D182E282F382E1C010E0000F111F20
:10426000000F111F0956194FC701B60120E030E0B9
:1042700040E752E40E946F3820E030E040E752E42B
:104280000E946F38F8016083718382839383C6C074
:10429000E02FF0E0EE0FFF1FEE0FFF1FED55F94F7F
:1042A000D701C601B05880839183A283B383B6C07F
:1042B0000A3008F4B7C09F5F943009F4B3C00A50C5
:1042C000A9CFC701B6010E9449390E949A36E02F52
:1042D000F0E0EC31F10508F0A5C0EC5CFF4FEE0F0B
:1042E000FF1F0590F491E02D0994633010F486E0EF
:1042F0009AC06093AF0692C06093B2068FC060937D
:10430000B00602C06093B1060E943A1D87C06623C2
:1043100021F08091BC06846009C08091BC068B7F2F
:1043200005C0662331F08091BC0680648093BC0692
:1043300075C08091BC068F7BF9CF662321F08091F8
:10434000BC068068F3CF8091BC068F77EFCF609377
:10435000B30664C0C092B406D092B506E092B60629
:10436000F092B7065BC0C092B806D092B906E09250
:10437000BA06F092BB0652C0662321F08091BC06BB
:104380008160D4CF8091BC068E7FD0CF662341F070
:104390008091BC0684FD02C08AE045C08062C6CF21
:1043A0008091BC068F7DC2CF662321F08091BC0630
:1043B000886003C08091BC06877F8093BC060E9402
:1043C00087292CC0662321F08091BC068061AECF86
:1043D0008091BC068F7CAACF6093BD061FC0C0929F
:1043E000BE06D092BF06E092C006F092C10616C08B
:1043F000C092C206D092C306E092C406F092C506EF
:104400000DC06093C6061092C70608C0C092C806C9
:10441000D092C906E092CA06F092CB060E94E22032
:1044200080E001C083E01F910F91FF90EF90DF903B
:10443000CF9008959DE0899FC001112480509E4F28
:104440004CE050E00E942E2008950F931F93CF93CD
:10445000DF93162F072F9DE0899FE0011124C050A4
:10446000DE4F862F972FBE014CE050E00E94772050
:10447000892B11F081E00FC0E12FF02F8CE0DF01DC
:104480001D928A95E9F7CE01612F702F4CE050E024
:104490000E942E2080E0DF91CF911F910F9108950F
:1044A000CF92DF92EF92FF920F931F93DF93CF9300
:1044B000CDB7DEB72C970FB6F894DEBF0FBECDBFD9
:1044C000E82E80FFC1C08AE08093AF0689E1809327
:1044D000B2061092B0061092B10683E08093B30644
:1044E0008AE097EDA3E2BCE38093B4069093B5060F
:1044F000A093B606B093B7068FE692E1A3E0BBE3C4
:104500008093B8069093B906A093BA06B093BB0601
:104510001092BD0680E090E0A8ECB1E48093BE0666
:104520009093BF06A093C006B093C10620E030E090
:104530004AEF53E42093C2063093C3064093C40667
:104540005093C5068AEF90E09093C7068093C60605
:1045500080E090E0A0E8BFE38093C8069093C9068E
:10456000A093CA06B093CB061092BC0680E090E000
:10457000AAE7B3E480937F0690938006A093810618
:10458000B09382068093830690938406A093850659
:10459000B09386068093870690938806A093890639
:1045A000B0938A0620938B0630938C0640938D0639
:1045B00050938E0620938F06309390064093910679
:1045C0005093920620939306309394064093950659
:1045D0005093960680E090EAACE0B7E480939706AB
:1045E00090939806A0939906B0939A0680939B06A1
:1045F00090939C06A0939D06B0939E0680939F0681
:104600009093A006A093A106B093A20680E090E04C
:10461000A8E4B3EC8093A3069093A406A093A50608
:10462000B093A6068093A7069093A806A093A90628
:10463000B093AA068093AB069093AC06A093AD0608
:10464000B093AE060E94E220E1FE16C0FE01319654
:104650008CE0DF011D928A95E9F700E012E06F011E
:10466000C801B6014CE050E00E942E20035F1F4FAE
:10467000B2E008361B07A1F7E2FE0AC080E093E033
:1046800060E00E940C2081E593E060E00E940C2035
:10469000E3FE05C08EEA93E060E00E940C202C96B9
:1046A0000FB6F894DEBF0FBECDBFCF91DF911F9143
:1046B0000F91FF90EF90DF90CF9008950E94CC2053
:1046C000882341F487E00E94212E8FEF0E94502220
:1046D0000E943C310895BC018EEA93E040E550E031
:1046E0000E942E200895CF93DF93EC016EEA73E0D1
:1046F00040E550E00E947720892B11F081E009C04D
:1047000018828EEA93E0BE0140E550E00E942E2020
:1047100080E0DF91CF91089591E5899FC001112438
:1047200080509D4F40E550E00E942E2008950F9349
:104730001F93CF93DF938B0191E5899FE0011124B3
:10474000C050DD4FCB01BE0140E550E00E94772014
:10475000892B11F081E009C0F8011082CE01B80167
:1047600040E550E00E942E2080E0DF91CF911F9124
:104770000F9108952091070580910805821769F02F
:10478000922F9F5F923109F490E080910A052817DB
:1047900011F490930A0590930705089590910705E9
:1047A00080910805891719F420E030E006C089E2FD
:1047B000989F900111242B5D3D4FC901089520E081
:1047C0009091070580910905981709F421E0822F3F
:1047D000089580912C0590912D05A0912E05B09102
:1047E0002F0580930B0590930C05A0930D05B093B6
:1047F0000E058091300590913105A0913205B09160
:10480000330580930F0590931005A0931105B09385
:1048100012058091340590913505A0913605B0912F
:1048200037058093130590931405A0931505B09355
:10483000160508958091080590910705891710F0D5
:10484000891B08958E5E891B08954F925F926F9227
:104850007F928F929F92AF92BF92CF92DF92EF9210
:10486000FF920F931F93CF93DF93809108058823C6
:1048700009F482E1782E7A9460900A05761409F49E
:10488000F2C089E2789E4001112485E292E0880E10
:10489000991EF401A588B688C788D08C21A132A1C1
:1048A00043A154A1CA01B9010E944D35F40125A1CB
:1048B00036A147A150A50E946F387B018C01B5013C
:1048C000C601A80197010E94263687FD04C0D801C1
:1048D000C70157016D01C501D601F401818B928B8F
:1048E000A38BB48B772011F432E1732E7A94761473
:1048F00009F04EC080910705681609F050C00E946B
:10490000B7164DC0769CE0011124CB5DDD4F7720BA
:1049100011F422E1722E7A9480910705781611F431
:104920000E94B716AD88BE88CF88D88C69897A89ED
:104930008B899C89A60195010E942636882331F136
:1049400029A13AA14BA15CA1CA01B9010E944D3530
:104950002DA13EA14FA158A50E946F38F4012189D5
:104960003289438954890E944D357B018C01A6010F
:1049700095010E94263688232CF4E98AFA8A0B8B4B
:104980001C8B04C0A98ABA8ACB8ADC8A4E0102C079
:1049900099E2692E80910A05781609F0B3CFA090AC
:1049A0000A05BA2CB394F2E1BF1609F4BB2489E2DC
:1049B000A89E800111240B5D1D4F5090080589E2CF
:1049C000482E4CC0B49CE0011124CB5DDD4FF801B2
:1049D000C188D288E388F48869887A888B889C8823
:1049E000C701B601A40193010E94263688231CF555
:1049F000F80121A132A143A154A1CA01B9010E9429
:104A00004D35F80125A136A147A150A50E946F3868
:104A10009B01AC01C701B6010E944D357B018C01A1
:104A2000A40193010E94263688232CF4E98AFA8A8D
:104A30000B8B1C8BAB2C69897A898B899C892D897E
:104A40003E894F89588D0E942636882309F4AB2C65
:104A5000B394F2E1BF1609F4BB248E01B51409F03A
:104A6000B1CFA0920A05DF91CF911F910F91FF90D6
:104A7000EF90DF90CF90BF90AF909F908F907F90FE
:104A80006F905F904F9008950E94B7168091070530
:104A900080930A050E9425240895209107052F5F21
:104AA000223109F420E080910805281729F460E0FC
:104AB00070E080E090E012C030E089E290E0289F52
:104AC000F001299FF00D389FF00D1124EB5DFD4F93
:104AD00061897289838994890E94FC3808952F9294
:104AE0003F924F925F926F927F928F929F92AF927E
:104AF000BF92CF92DF92EF92FF920F931F93DF93BB
:104B0000CF93CDB7DEB7E0970FB6F894DEBF0FBEF8
:104B1000CDBF98A78FA349A75AA76BA77CA7222E22
:104B20009091080589E2989F4001112425E232E026
:104B3000820E931ED4011D961D921D921D921C92F1
:104B4000509780E090E0A0E0B0E0F40185A396A348
:104B5000A7A3B0A7108289E996E7A6E9BEE781A3DB
:104B600092A3A3A3B4A32401332466247724F301DE
:104B7000E158F94FA080B180C280D380EFA1F8A5A1
:104B8000E60DF71DC601B5012081318142815381B7
:104B90000E946F380E943F389B01AC01E1E0F0E0D9
:104BA000EC0FFD1FE60DF71D2083318342835383F5
:104BB000F301E55FFA4F80819181A281B381281BC7
:104BC000390B4A0B5B0BDA01C90157FF07C0882775
:104BD0009927DC01821B930BA40BB50BF201818397
:104BE0009283A383B483F401E584F6840785108956
:104BF0008E159F05A007B10710F4D801C701F40175
:104C000085879687A787B08BCA01B9010E94C836ED
:104C1000A60195010E942D365B016C01EDE0F0E0EC
:104C2000EC0FFD1FE60DF71D608371838283938374
:104C300020E030E040E050E00E942636882344F433
:104C4000D4011C91832D0E94B820182BF4011083ED
:104C5000D4019596ED90FD900D911C919897C60109
:104C6000B501A60195010E946F389B01AC01C801F6
:104C7000B7010E944D357B018C01CB01D801F401B5
:104C800085A396A3A7A3B0A7339424E030E0620ED7
:104C9000731E420E531E33E0331609F068CFB7017E
:104CA000C8010E94FC387B018C01D40195966D935C
:104CB0007D938D939C9398971D968D919D910D90CA
:104CC000BC91A02D0097A105B10509F40BC269A5FF
:104CD0007AA58BA59CA520E030E040E050E00E9442
:104CE000263688232CF489E996E7A6E9BEE71EC09C
:104CF000222061F069A57AA58BA59CA5A801970142
:104D00000E946F3869A77AA78BA79CA769A57AA587
:104D10008BA59CA520E030E040E85FE30E942636AA
:104D2000882344F480E090E0A0E8BFE389A79AA735
:104D3000ABA7BCA760E070E080E89FE3A801970103
:104D40000E942D366BA37CA38DA39EA3DE011D962E
:104D5000BE8FAD8FE7E1F5E0FC8FEB8F2BE836E0FF
:104D60003A8F298F80E090E0A0E0B0E08F8F98A389
:104D7000A9A3BAA3DE015996B8ABAFA7ED8DFE8DFE
:104D8000E080F18002811381C801B70120E030E0AA
:104D900040E050E00E942636882309F47CC0C80118
:104DA000B7012BA13CA14DA15EA10E946F382B0140
:104DB0003C01AD8DBE8D6D937D938D939C93139728
:104DC00060E070E080E89FE3A30192010E942D362D
:104DD0005B016C01E894D7F8C601B501E98DFA8D45
:104DE00020813181428153810E946F387B018C0187
:104DF00069A57AA58BA59CA5A80197010E942636D6
:104E000087FD04C0E9A6FAA60BA71CA7D4019196BA
:104E1000BC91BDA7F401F2A1FEA7D40193962C90FA
:104E2000939794963C90C601B501E98DFA8D24853F
:104E30003585468557850E946F387B018C016DA5AD
:104E40007EA5C101A80197010E94263687FD05C0F5
:104E5000D801C701EDA69EA71D018DA59EA5D10174
:104E6000F40181A392A3A3A3B4A3C301B201AB8DA8
:104E7000BC8D2D913D914D915C910E946F389B01AD
:104E8000AC016F8D78A189A19AA10E944C356F8FDA
:104E900078A389A39AA3ED8DFE8D3496FE8FED8FB6
:104EA0002B8D3C8D2C5F3F4F3C8F2B8F898D9A8DA6
:104EB00004969A8F898FAFA5B8A9EA17FB0709F066
:104EC0005DCF9091080580910705981751F480E017
:104ED00090E0A0E0B0E0F401818B928BA38BB48BC7
:104EE00011C06F8D78A189A19AA124EA30E74DE71E
:104EF0005FE30E943438181654F480E090E0A0E09C
:104F0000B0E0F401818F928FA38FB48F66C06F8D54
:104F100078A189A19AA124EA30E74DE75FEB0E94CE
:104F20003438181644F084EA90E7ADE7BFEB8F8F72
:104F300098A3A9A3BAA360E070E080E89FE32F8D57
:104F400038A149A15AA10E944C3520E030E040E050
:104F50005FE30E946F380E94FC385B016C01D40152
:104F600091966D917D918D919C9194972091B4062D
:104F70003091B5064091B6065091B7060E946F3841
:104F8000A60195010E946F387B018C0160E070E002
:104F900080E89FE3A60195010E944C359B01AC017E
:104FA000C801B7010E942D367B018C0120E030E062
:104FB00040E050E00E942636882354F40F2EF0E0A3
:104FC000EF2EF0E0FF2EF0E00F2FF0E01F2FF02D7E
:104FD000F401E18EF28E038F148F69A57AA58BA55B
:104FE0009CA59B01AC010E946F387B018C01D40110
:104FF0005D966D937D938D939C93909759965C905D
:1050000059975A964C905A975B963C905B975C9652
:105010002C90D0902305C0902405B0902505A09039
:1050200026052D2D3C2D4B2D5A2D0E94263687FD11
:1050300004C06D2C7C2CF50105C0D801C7013701D7
:10504000FA2FEB2F652D742D832D922D93014F2F69
:105050005E2F0E94263688232CF4852D942DA32DB7
:10506000B22D0EC0C801B7012D2D3C2D4B2D5A2D50
:105070000E94263687FD06C08D2D9C2DAB2DBA2DA6
:105080007C018D01F401E58AF68A078B108FA7E178
:10509000B5E0FE013D968CE001900D928150E1F764
:1050A000F401858D968DA78DB0A1809323059093F3
:1050B0002405A0932505B0932605ABE0B5E0FE01DD
:1050C00031968CE001900D928150E1F780910905B5
:1050D000809308058F5F823109F480E08093090591
:1050E0000E942524E0960FB6F894DEBF0FBECDBF18
:1050F000CF91DF911F910F91FF90EF90DF90CF90B4
:10510000BF90AF909F908F907F906F905F904F90E7
:105110003F902F9008958CE1EBE0F5E0DF011D92C8
:105120008A95E9F7109207051092080581E08093AF
:10513000090510920A0508956F927F928F929F92AF
:10514000AF92BF92CF92DF92EF92FF920F931F9395
:10515000CF93DF934C013B015A01FB018081F401A5
:10516000E80FF11DEF0189918D3229F4818121969B
:10517000CC24C39405C08B3211F481812196CC24B8
:1051800020E030E040E050E0DD24E0E070E0682F17
:1051900060536A30F8F4EF5FE930C0F47111DA94CB
:1051A000DA01C901F2E0880F991FAA1FBB1FFA9507
:1051B000D1F7280F391F4A1F5B1F220F331F441FCF
:1051C000551F260F311D411D511D09C0772339F48C
:1051D000D39405C06E3F29F4772319F471E08991C7
:1051E000D6CFEE2311F480E050C0CA01B9010E946D
:1051F000C6367B018C0120E030E040E050E00E94A8
:105200002636882369F42BC0C801B7012AE037EDA0
:1052100043E25CE30E946F387B018C01F2E0DF0E19
:105220008FEFD8168CF3D81659F4C801B7012DECBE
:105230003CEC4CEC5DE30E946F387B018C010FC0AD
:10524000DD2069F0C801B70120E030E040E251E420
:105250000E946F387B018C01DA941D149CF3CC20E2
:1052600049F0D801C701B058F50180839183A2832A
:10527000B38305C0F501E082F18202831383882D98
:1052800080958C0FF301808381E0DF91CF911F9196
:105290000F91FF90EF90DF90CF90BF90AF909F90D5
:1052A0008F907F906F90089520EA3FE004C0F9014D
:1052B0003197F1F701970097D1F70895AF92BF9218
:1052C000CF92DF92EF92FF920F931F937B018C019D
:1052D00059016A01A80197010E946F387B018C0176
:1052E000C601B501A60195010E946F389B01AC0172
:1052F000C801B7010E944D350E94FC381F910F91E3
:10530000FF90EF90DF90CF90BF90AF90089584B161
:10531000897E84B985B1866185B98091BC0683FF99
:1053200009C080916B00866180936B00809168005A
:10533000816008C080916B00897E80936B008091B2
:1053400068008E7F809368000895EBE6F0E080812E
:10535000897E8083E8E6F0E080818E7F80830895F7
:10536000CF92DF92EF92FF920F931F93CF93DF9331
:105370006C01C0E0D0E0F601EC0FFD1FE080F18091
:1053800002811381C801B70120E030E040E050E025
:105390000E94343818166CF0FE01E158F94FC8012C
:1053A000B70124A135A146A157A10E942636882322
:1053B0001CF580912805883091F49FB7F89480916E
:1053C0002A05886080932A059FBF0E9485148091DA
:1053D00027058823B1F4809128058823B1F70E941E
:1053E00040049FB7F89480912B05856080932B052E
:1053F0009FBF0E94851405C02496CC30D10509F0CA
:10540000BACFDF91CF911F910F91FF90EF90DF9076
:10541000CF9008951F920F920FB60F9211242F93E1
:105420003F934F935F936F937F938F939F93AF932C
:10543000BF93EF93FF9380912805813071F08091A5
:105440002B05882351F40E9440049FB7F894809163
:105450002B05836080932B059FBFFF91EF91BF9138
:10546000AF919F918F917F916F915F914F913F91FC
:105470002F910F900FBE0F901F901895EF92FF92F3
:105480000F931F93CF93DF9313B116718091BC06D6
:1054900086FD02C086E11827112311F400E017C031
:1054A00000E0C0E0D0E081E0E82EF12C8C2F0E94DB
:1054B000C220812341F0C7010C2E02C0880F991F22
:1054C0000A94E2F7082B2196C330D10579F7802F93
:1054D000DF91CF911F910F91FF90EF9008952F9240
:1054E0003F924F925F926F927F928F929F92AF9274
:1054F000BF92CF92DF92EF92FF920F931F93DF93B1
:10550000CF93CDB7DEB765970FB6F894DEBF0FBE69
:10551000CDBF8B8B80912705882309F0ABC123EA8F
:10552000A22E26E0B22E6624772488249924CC2447
:10553000DD242E010894411C511C3B89232F30E0AF
:105540003D8B2C8B8C2D0E94AE20F201EC0DFD1DAD
:1055500080838C899D890C2C02C0959587950A942F
:10556000E2F780FF15C0F50160817181828193812E
:1055700020E030E040EC5FEB0E946F387B018C0153
:10558000B301C401A80197010E943438181624F40D
:10559000C301D4017C018D010894C11CD11C24E0FD
:1055A00030E0A20EB31E33E0C316D10429F0D801B7
:1055B000C70137014D01C6CFA090C206B090C30607
:1055C000C090C406D090C50663E0688B4424439421
:1055D000CE0104966CE275E00E9417338091BD06FF
:1055E000E82FF0E0FA8BE98BDE0114969CE2292E7D
:1055F00095E0392EB101552450E020E030E037012C
:10560000480197FA909497F890948C899D89022E7E
:1056100002C0959587950A94E2F780FF28C0FB01A8
:10562000108211821282138289899A89022E02C005
:10563000959587950A94E2F780FF03C0442019F0FE
:1056400008C0442031F0ED92FD920D931C93139706
:1056500005C06D927D928D929C9213975F5FE1E001
:10566000F0E0EC0FFD1FE20FF31F8081582A2F5F3F
:105670003F4F14966C5F7F4F2330310531F6652F15
:1056800070E080E090E00E94C6360E94FC387B010A
:105690008C01509238050E94E923C601B501A8018A
:1056A00097010E946F38AB01BC01CE01049620E047
:1056B0000E946F250E94D9160E945716442011F1AE
:1056C0000E943E2A20E030E0482F50E0E1E0F0E088
:1056D000EC0FFD1FE20FF31FE081852D8E2359F0A3
:1056E000BA01022E02C0759567950A94E2F760FF31
:1056F00002C0E0955E222F5F3F4F2330310531F726
:10570000509238050E94D91680912A058473D1F0F1
:1057100080912A05807341F4442009F0A6C00E94BC
:105720003E2A7B89872329F00E9440040E94851429
:10573000A1C09FB7F89480912A058B7F80932A059A
:105740009FBF04C0852D8C7109F0B8CF0E94A21DA7
:105750000E948B288091C6069091C7060E9454290A
:1057600081E04826C9F06091C8067091C906809111
:10577000CA069091CB0620E030E040EA50E40E9457
:105780006F387B018C01A090BE06B090BF06C09020
:10579000C006D090C10610C0E090C806F090C906BF
:1057A0000091CA061091CB06A090C206B090C30625
:1057B000C090C406D090C5069889992319F09150DD
:1057C000988B06CF8091BD06482E5524A090C80620
:1057D000B090C906C090CA06D090CB0635014601EC
:1057E00097FA909497F890940FE716E0EE24FF2430
:1057F0008C899D890E2C02C0959587950A94E2F7B5
:1058000080FF23C0C2010E2C02C0959587950A9493
:10581000E2F780FF0AC0C601B501F80124A135A155
:1058200046A157A10E944D3502C0C401B301F80141
:1058300020813181428153810E946F380E943F381C
:10584000F10160837183828393830894E11CF11CCE
:1058500024E030E0220E331E0C5F1F4F33E0E316CE
:10586000F10431F60E94E92305C080912A0582FFE8
:1058700060CF5ACF65960FB6F894DEBF0FBECDBF8E
:10588000CF91DF911F910F91FF90EF90DF90CF901C
:10589000BF90AF909F908F907F906F905F904F9050
:1058A0003F902F9008958F929F92AF92BF92CF9288
:1058B000DF92EF92FF920F931F93DF93CF93CDB7B9
:1058C000DEB72A970FB6F894DEBF0FBECDBF7B01BF
:1058D0008C01A42E20E030E040E050E00E9426360B
:1058E00088233CF48DE20E94B91317FB109517F939
:1058F0001095DA2C0CC0C801B70120E030E048EC6C
:1059000052E40E946F387B018C018EEFD80EE1E0EB
:10591000ED1588F3A0FE0AC0C801B70120E030E011
:1059200040E251E40E946F387B018C01C801B7014D
:1059300020E030E040E05FE30E944D350E94953664
:105940006B017C019E012F5F3F4FF901EA0DF11DB4
:105950008EE28083BB2449011EC0BA1409F4B394BB
:1059600084010B0D111DC701B6012AE030E040E0B3
:1059700050E00E947439605DF8016083B394C70100
:10598000B6012AE030E040E050E00E947439C901DD
:10599000DA016C017D01C114D104E104F104E9F6DE
:1059A00006C0FC01EB0DF11D2083B39403C0CE01B2
:1059B000019620E3BA14A8F3BA1489F48B2D8F5FF3
:1059C000FE01E80FF11D90E39183B82EB39407C058
:1059D000FE01EB0DF11D80810E94B913BA94BB202A
:1059E000B9F72A960FB6F894DEBF0FBECDBFCF91A0
:1059F000DF911F910F91FF90EF90DF90CF90BF90BC
:105A0000AF909F908F90089543E00E94532C08958B
:105A10009B01AC018091BC0680FF0AC0CA01B9019C
:105A20002BE832E441E25DE30E946F3841E003C0BD
:105A3000CA01B90140E00E94532C08959B01AC01BA
:105A40008091BC0680FF0AC0CA01B9012BE832E48C
:105A500041E25DE30E946F3844E003C0CA01B9012E
:105A600043E00E94532C0895CF93DF93EC0102C0D2
:105A70000E94B913FE01219684918823C9F7DF9112
:105A8000CF910895CF93DF93EC0103C021960E943C
:105A9000B91388818823D1F7DF91CF910895CF92F0
:105AA000DF92EF92FF921F93DF93CF93CDB7DEB7D4
:105AB000382F562FCDB6DEB68DB79EB7841B910911
:105AC0000FB6F8949EBF0FBE8DBFEDB6FEB608941C
:105AD000E11CF11C20E00DC0F701E20FF11D832F46
